{
  "contractName": "DoctorRecord",
  "abi": [
    {
      "inputs": [
        {
          "internalType": "string",
          "name": "name",
          "type": "string"
        },
        {
          "internalType": "uint256",
          "name": "did",
          "type": "uint256"
        },
        {
          "internalType": "string",
          "name": "specialization",
          "type": "string"
        }
      ],
      "name": "setDoctor",
      "outputs": [],
      "stateMutability": "nonpayable",
      "type": "function"
    },
    {
      "inputs": [],
      "name": "getDoctor",
      "outputs": [
        {
          "internalType": "string",
          "name": "",
          "type": "string"
        },
        {
          "internalType": "uint256",
          "name": "",
          "type": "uint256"
        },
        {
          "internalType": "string",
          "name": "",
          "type": "string"
        }
      ],
      "stateMutability": "nonpayable",
      "type": "function"
    }
  ],
  "bytecode": "0x608060405234801561001057600080fd5b506104fc806100206000396000f3fe608060405234801561001057600080fd5b50600436106100365760003560e01c80633aaa59201461003b578063b1a653081461005b575b600080fd5b610043610070565b6040516100529392919061023c565b60405180910390f35b61006e610069366004610314565b6101a8565b005b60606000606060008001600060010154600060020182805461009190610381565b80601f01602080910402602001604051908101604052809291908181526020018280546100bd90610381565b801561010a5780601f106100df5761010080835404028352916020019161010a565b820191906000526020600020905b8154815290600101906020018083116100ed57829003601f168201915b5050505050925080805461011d90610381565b80601f016020809104026020016040519081016040528092919081815260200182805461014990610381565b80156101965780601f1061016b57610100808354040283529160200191610196565b820191906000526020600020905b81548152906001019060200180831161017957829003601f168201915b50505050509050925092509250909192565b60408051606081018252848152602081018490529081018290526000806101cf8682610406565b5060208201516001820155604082015160028201906101ee9082610406565b505050505050565b6000815180845260005b8181101561021c57602081850181015186830182015201610200565b506000602082860101526020601f19601f83011685010191505092915050565b60608152600061024f60608301866101f6565b846020840152828103604084015261026781856101f6565b9695505050505050565b634e487b7160e01b600052604160045260246000fd5b600082601f83011261029857600080fd5b813567ffffffffffffffff808211156102b3576102b3610271565b604051601f8301601f19908116603f011681019082821181831017156102db576102db610271565b816040528381528660208588010111156102f457600080fd5b836020870160208301376000602085830101528094505050505092915050565b60008060006060848603121561032957600080fd5b833567ffffffffffffffff8082111561034157600080fd5b61034d87838801610287565b945060208601359350604086013591508082111561036a57600080fd5b5061037786828701610287565b9150509250925092565b600181811c9082168061039557607f821691505b6020821081036103b557634e487b7160e01b600052602260045260246000fd5b50919050565b601f82111561040157600081815260208120601f850160051c810160208610156103e25750805b601f850160051c820191505b818110156101ee578281556001016103ee565b505050565b815167ffffffffffffffff81111561042057610420610271565b6104348161042e8454610381565b846103bb565b602080601f83116001811461046957600084156104515750858301515b600019600386901b1c1916600185901b1785556101ee565b600085815260208120601f198616915b8281101561049857888601518255948401946001909101908401610479565b50858210156104b65787850151600019600388901b60f8161c191681555b5050505050600190811b0190555056fea2646970667358221220a0126db224eceaeb5ddd07a46e128bae18b7be9ebbbde6339d5da40d7e18b0b364736f6c63430008110033",
  "immutableReferences": {},
  "source": "// SPDX-License-Identifier: MIT\r\npragma solidity ^0.8.4;\r\ncontract DoctorRecord{\r\n    struct Hrec\r\n    {\r\n         string name;\r\n         uint did;\r\n         string specialization;\r\n          \r\n    }\r\n    Hrec rec;\r\n\r\n    //function for setting hospital data...\r\n   function setDoctor(string memory name,uint did,string memory specialization) public{\r\n    rec=Hrec(name,did,specialization);\r\n   }\r\n\r\n    function getDoctor() public returns(string memory,uint,string memory){\r\n        return (rec.name,rec.did,rec.specialization);\r\n    }\r\n}",
  "sourcePath": "C:\\Users\\akash.g\\Desktop\\Patientrecord\\contracts\\DoctorRecord.sol",
  "compiler": {
    "name": "solc",
    "version": "0.8.17+commit.8df45f5f.Emscripten.clang"
  },
  "schemaVersion": "3.4.10",
  "updatedAt": "2022-11-29T12:21:13.327Z",
  "networkType": "ethereum",
  "devdoc": {
    "kind": "dev",
    "methods": {},
    "version": 1
  },
  "userdoc": {
    "kind": "user",
    "methods": {},
    "version": 1
  }
}