{
  "contractName": "PatientRecord",
  "abi": [
    {
      "inputs": [
        {
          "internalType": "string",
          "name": "name",
          "type": "string"
        },
        {
          "internalType": "uint256",
          "name": "age",
          "type": "uint256"
        },
        {
          "internalType": "uint256",
          "name": "pid",
          "type": "uint256"
        }
      ],
      "name": "setPatient",
      "outputs": [],
      "stateMutability": "nonpayable",
      "type": "function"
    },
    {
      "inputs": [],
      "name": "getPatient",
      "outputs": [
        {
          "internalType": "string",
          "name": "",
          "type": "string"
        },
        {
          "internalType": "uint256",
          "name": "",
          "type": "uint256"
        },
        {
          "internalType": "uint256",
          "name": "",
          "type": "uint256"
        }
      ],
      "stateMutability": "nonpayable",
      "type": "function"
    }
  ],
  "bytecode": "0x608060405234801561001057600080fd5b50610414806100206000396000f3fe608060405234801561001057600080fd5b50600436106100365760003560e01c8063669f59161461003b5780637b0f9a3614610050575b600080fd5b61004e610049366004610175565b610070565b005b6100586100b3565b60405161006793929190610239565b60405180910390f35b6040805160608101825284815260208101849052908101829052600080610097868261031e565b5060208201516001820155604090910151600290910155505050565b6060600080600080016000600101546000600201548280546100d490610295565b80601f016020809104026020016040519081016040528092919081815260200182805461010090610295565b801561014d5780601f106101225761010080835404028352916020019161014d565b820191906000526020600020905b81548152906001019060200180831161013057829003601f168201915b50505050509250925092509250909192565b634e487b7160e01b600052604160045260246000fd5b60008060006060848603121561018a57600080fd5b833567ffffffffffffffff808211156101a257600080fd5b818601915086601f8301126101b657600080fd5b8135818111156101c8576101c861015f565b604051601f8201601f19908116603f011681019083821181831017156101f0576101f061015f565b8160405282815289602084870101111561020957600080fd5b82602086016020830137600060208483010152809750505050505060208401359150604084013590509250925092565b606081526000845180606084015260005b81811015610267576020818801810151608086840101520161024a565b506000608082850101526080601f19601f830116840101915050836020830152826040830152949350505050565b600181811c908216806102a957607f821691505b6020821081036102c957634e487b7160e01b600052602260045260246000fd5b50919050565b601f82111561031957600081815260208120601f850160051c810160208610156102f65750805b601f850160051c820191505b8181101561031557828155600101610302565b5050505b505050565b815167ffffffffffffffff8111156103385761033861015f565b61034c816103468454610295565b846102cf565b602080601f83116001811461038157600084156103695750858301515b600019600386901b1c1916600185901b178555610315565b600085815260208120601f198616915b828110156103b057888601518255948401946001909101908401610391565b50858210156103ce5787850151600019600388901b60f8161c191681555b5050505050600190811b0190555056fea2646970667358221220e97ec1c2dcdf0415ea74dcee609037e5a66c07022f9ccc21019221ade8faa62d64736f6c63430008110033",
  "immutableReferences": {},
  "source": "// SPDX-License-Identifier: MIT\r\npragma solidity ^0.8.4;\r\ncontract PatientRecord{\r\n    struct Prec\r\n    {\r\n         string name;\r\n          uint age;\r\n          uint pid;\r\n    }\r\n    Prec rec;\r\n\r\n    //function for setting patient data...\r\n   function setPatient(string memory name,uint age,uint pid) public{\r\n    rec=Prec(name,age,pid);\r\n   }\r\n\r\n    function getPatient() public returns(string memory,uint,uint){\r\n        return (rec.name,rec.age,rec.pid);\r\n    }\r\n}",
  "sourcePath": "C:\\Users\\akash.g\\Desktop\\Patientrecord\\contracts\\PatientRecord.sol",
  "compiler": {
    "name": "solc",
    "version": "0.8.17+commit.8df45f5f.Emscripten.clang"
  },
  "schemaVersion": "3.4.10",
  "updatedAt": "2022-11-29T12:21:13.320Z",
  "networkType": "ethereum",
  "devdoc": {
    "kind": "dev",
    "methods": {},
    "version": 1
  },
  "userdoc": {
    "kind": "user",
    "methods": {},
    "version": 1
  }
}